{
  "_format": "hh-sol-artifact-1",
  "contractName": "CasNFT",
  "sourceName": "contracts/CasNFT.sol",
  "abi": [
    {
      "inputs": [
        {
          "internalType": "string",
          "name": "baseURI",
          "type": "string"
        }
      ],
      "stateMutability": "nonpayable",
      "type": "constructor"
    },
    {
      "anonymous": false,
      "inputs": [
        {
          "indexed": true,
          "internalType": "address",
          "name": "to",
          "type": "address"
        },
        {
          "indexed": false,
          "internalType": "uint256",
          "name": "tokenId",
          "type": "uint256"
        }
      ],
      "name": "Airdrop",
      "type": "event"
    },
    {
      "anonymous": false,
      "inputs": [
        {
          "indexed": true,
          "internalType": "address",
          "name": "owner",
          "type": "address"
        },
        {
          "indexed": true,
          "internalType": "address",
          "name": "approved",
          "type": "address"
        },
        {
          "indexed": true,
          "internalType": "uint256",
          "name": "tokenId",
          "type": "uint256"
        }
      ],
      "name": "Approval",
      "type": "event"
    },
    {
      "anonymous": false,
      "inputs": [
        {
          "indexed": true,
          "internalType": "address",
          "name": "owner",
          "type": "address"
        },
        {
          "indexed": true,
          "internalType": "address",
          "name": "operator",
          "type": "address"
        },
        {
          "indexed": false,
          "internalType": "bool",
          "name": "approved",
          "type": "bool"
        }
      ],
      "name": "ApprovalForAll",
      "type": "event"
    },
    {
      "anonymous": false,
      "inputs": [
        {
          "indexed": true,
          "internalType": "address",
          "name": "previousOwner",
          "type": "address"
        },
        {
          "indexed": true,
          "internalType": "address",
          "name": "newOwner",
          "type": "address"
        }
      ],
      "name": "OwnershipTransferred",
      "type": "event"
    },
    {
      "anonymous": false,
      "inputs": [
        {
          "indexed": true,
          "internalType": "address",
          "name": "from",
          "type": "address"
        },
        {
          "indexed": true,
          "internalType": "address",
          "name": "to",
          "type": "address"
        },
        {
          "indexed": true,
          "internalType": "uint256",
          "name": "tokenId",
          "type": "uint256"
        }
      ],
      "name": "Transfer",
      "type": "event"
    },
    {
      "inputs": [
        {
          "internalType": "address[]",
          "name": "recipients",
          "type": "address[]"
        }
      ],
      "name": "airdrop",
      "outputs": [],
      "stateMutability": "nonpayable",
      "type": "function"
    },
    {
      "inputs": [
        {
          "internalType": "address",
          "name": "to",
          "type": "address"
        },
        {
          "internalType": "uint256",
          "name": "tokenId",
          "type": "uint256"
        }
      ],
      "name": "approve",
      "outputs": [],
      "stateMutability": "nonpayable",
      "type": "function"
    },
    {
      "inputs": [
        {
          "internalType": "address",
          "name": "owner",
          "type": "address"
        }
      ],
      "name": "balanceOf",
      "outputs": [
        {
          "internalType": "uint256",
          "name": "",
          "type": "uint256"
        }
      ],
      "stateMutability": "view",
      "type": "function"
    },
    {
      "inputs": [],
      "name": "baseTokenURI",
      "outputs": [
        {
          "internalType": "string",
          "name": "",
          "type": "string"
        }
      ],
      "stateMutability": "view",
      "type": "function"
    },
    {
      "inputs": [
        {
          "internalType": "uint256",
          "name": "tokenId",
          "type": "uint256"
        }
      ],
      "name": "burnNFT",
      "outputs": [],
      "stateMutability": "nonpayable",
      "type": "function"
    },
    {
      "inputs": [
        {
          "internalType": "uint256",
          "name": "tokenId",
          "type": "uint256"
        }
      ],
      "name": "getApproved",
      "outputs": [
        {
          "internalType": "address",
          "name": "",
          "type": "address"
        }
      ],
      "stateMutability": "view",
      "type": "function"
    },
    {
      "inputs": [
        {
          "internalType": "address",
          "name": "_owner",
          "type": "address"
        }
      ],
      "name": "getTokenIds",
      "outputs": [
        {
          "internalType": "uint256[]",
          "name": "",
          "type": "uint256[]"
        }
      ],
      "stateMutability": "view",
      "type": "function"
    },
    {
      "inputs": [
        {
          "internalType": "address",
          "name": "owner",
          "type": "address"
        },
        {
          "internalType": "address",
          "name": "operator",
          "type": "address"
        }
      ],
      "name": "isApprovedForAll",
      "outputs": [
        {
          "internalType": "bool",
          "name": "",
          "type": "bool"
        }
      ],
      "stateMutability": "view",
      "type": "function"
    },
    {
      "inputs": [
        {
          "internalType": "uint256",
          "name": "_numTokens",
          "type": "uint256"
        }
      ],
      "name": "mintNFT",
      "outputs": [],
      "stateMutability": "nonpayable",
      "type": "function"
    },
    {
      "inputs": [],
      "name": "name",
      "outputs": [
        {
          "internalType": "string",
          "name": "",
          "type": "string"
        }
      ],
      "stateMutability": "view",
      "type": "function"
    },
    {
      "inputs": [],
      "name": "owner",
      "outputs": [
        {
          "internalType": "address",
          "name": "",
          "type": "address"
        }
      ],
      "stateMutability": "view",
      "type": "function"
    },
    {
      "inputs": [
        {
          "internalType": "uint256",
          "name": "tokenId",
          "type": "uint256"
        }
      ],
      "name": "ownerOf",
      "outputs": [
        {
          "internalType": "address",
          "name": "",
          "type": "address"
        }
      ],
      "stateMutability": "view",
      "type": "function"
    },
    {
      "inputs": [],
      "name": "renounceOwnership",
      "outputs": [],
      "stateMutability": "nonpayable",
      "type": "function"
    },
    {
      "inputs": [
        {
          "internalType": "address",
          "name": "from",
          "type": "address"
        },
        {
          "internalType": "address",
          "name": "to",
          "type": "address"
        },
        {
          "internalType": "uint256",
          "name": "tokenId",
          "type": "uint256"
        }
      ],
      "name": "safeTransferFrom",
      "outputs": [],
      "stateMutability": "nonpayable",
      "type": "function"
    },
    {
      "inputs": [
        {
          "internalType": "address",
          "name": "from",
          "type": "address"
        },
        {
          "internalType": "address",
          "name": "to",
          "type": "address"
        },
        {
          "internalType": "uint256",
          "name": "tokenId",
          "type": "uint256"
        },
        {
          "internalType": "bytes",
          "name": "_data",
          "type": "bytes"
        }
      ],
      "name": "safeTransferFrom",
      "outputs": [],
      "stateMutability": "nonpayable",
      "type": "function"
    },
    {
      "inputs": [
        {
          "internalType": "address",
          "name": "operator",
          "type": "address"
        },
        {
          "internalType": "bool",
          "name": "approved",
          "type": "bool"
        }
      ],
      "name": "setApprovalForAll",
      "outputs": [],
      "stateMutability": "nonpayable",
      "type": "function"
    },
    {
      "inputs": [
        {
          "internalType": "string",
          "name": "_baseTokenURI",
          "type": "string"
        }
      ],
      "name": "setBaseURI",
      "outputs": [],
      "stateMutability": "nonpayable",
      "type": "function"
    },
    {
      "inputs": [
        {
          "internalType": "bytes4",
          "name": "interfaceId",
          "type": "bytes4"
        }
      ],
      "name": "supportsInterface",
      "outputs": [
        {
          "internalType": "bool",
          "name": "",
          "type": "bool"
        }
      ],
      "stateMutability": "view",
      "type": "function"
    },
    {
      "inputs": [],
      "name": "symbol",
      "outputs": [
        {
          "internalType": "string",
          "name": "",
          "type": "string"
        }
      ],
      "stateMutability": "view",
      "type": "function"
    },
    {
      "inputs": [
        {
          "internalType": "uint256",
          "name": "index",
          "type": "uint256"
        }
      ],
      "name": "tokenByIndex",
      "outputs": [
        {
          "internalType": "uint256",
          "name": "",
          "type": "uint256"
        }
      ],
      "stateMutability": "view",
      "type": "function"
    },
    {
      "inputs": [
        {
          "internalType": "address",
          "name": "owner",
          "type": "address"
        },
        {
          "internalType": "uint256",
          "name": "index",
          "type": "uint256"
        }
      ],
      "name": "tokenOfOwnerByIndex",
      "outputs": [
        {
          "internalType": "uint256",
          "name": "",
          "type": "uint256"
        }
      ],
      "stateMutability": "view",
      "type": "function"
    },
    {
      "inputs": [
        {
          "internalType": "uint256",
          "name": "_nftId",
          "type": "uint256"
        }
      ],
      "name": "tokenURI",
      "outputs": [
        {
          "internalType": "string",
          "name": "",
          "type": "string"
        }
      ],
      "stateMutability": "view",
      "type": "function"
    },
    {
      "inputs": [],
      "name": "totalSupply",
      "outputs": [
        {
          "internalType": "uint256",
          "name": "",
          "type": "uint256"
        }
      ],
      "stateMutability": "view",
      "type": "function"
    },
    {
      "inputs": [
        {
          "internalType": "address",
          "name": "from",
          "type": "address"
        },
        {
          "internalType": "address",
          "name": "to",
          "type": "address"
        },
        {
          "internalType": "uint256",
          "name": "tokenId",
          "type": "uint256"
        }
      ],
      "name": "transferFrom",
      "outputs": [],
      "stateMutability": "nonpayable",
      "type": "function"
    },
    {
      "inputs": [
        {
          "internalType": "address",
          "name": "newOwner",
          "type": "address"
        }
      ],
      "name": "transferOwnership",
      "outputs": [],
      "stateMutability": "nonpayable",
      "type": "function"
    }
  ],
  "bytecode": "0x60806040526101f4600c556005600e553480156200001c57600080fd5b50604051620047c3380380620047c38339818101604052810190620000429190620003df565b6040518060400160405280600681526020017f4361734e465400000000000000000000000000000000000000000000000000008152506040518060400160405280600381526020017f43415300000000000000000000000000000000000000000000000000000000008152508160009080519060200190620000c6929190620002bd565b508060019080519060200190620000df929190620002bd565b50505062000102620000f66200011a60201b60201c565b6200012260201b60201c565b6200011381620001e860201b60201c565b5062000617565b600033905090565b6000600a60009054906101000a900473ffffffffffffffffffffffffffffffffffffffff16905081600a60006101000a81548173ffffffffffffffffffffffffffffffffffffffff021916908373ffffffffffffffffffffffffffffffffffffffff1602179055508173ffffffffffffffffffffffffffffffffffffffff168173ffffffffffffffffffffffffffffffffffffffff167f8be0079c531659141344cd1fd0a4f28419497f9722a3daafe3b4186f6b6457e060405160405180910390a35050565b620001f86200011a60201b60201c565b73ffffffffffffffffffffffffffffffffffffffff166200021e6200029360201b60201c565b73ffffffffffffffffffffffffffffffffffffffff161462000277576040517f08c379a00000000000000000000000000000000000000000000000000000000081526004016200026e906200044b565b60405180910390fd5b80600d90805190602001906200028f929190620002bd565b5050565b6000600a60009054906101000a900473ffffffffffffffffffffffffffffffffffffffff16905090565b828054620002cb9062000513565b90600052602060002090601f016020900481019282620002ef57600085556200033b565b82601f106200030a57805160ff19168380011785556200033b565b828001600101855582156200033b579182015b828111156200033a5782518255916020019190600101906200031d565b5b5090506200034a91906200034e565b5090565b5b80821115620003695760008160009055506001016200034f565b5090565b6000620003846200037e8462000496565b6200046d565b9050828152602081018484840111156200039d57600080fd5b620003aa848285620004dd565b509392505050565b600082601f830112620003c457600080fd5b8151620003d68482602086016200036d565b91505092915050565b600060208284031215620003f257600080fd5b600082015167ffffffffffffffff8111156200040d57600080fd5b6200041b84828501620003b2565b91505092915050565b600062000433602083620004cc565b91506200044082620005ee565b602082019050919050565b60006020820190508181036000830152620004668162000424565b9050919050565b6000620004796200048c565b905062000487828262000549565b919050565b6000604051905090565b600067ffffffffffffffff821115620004b457620004b3620005ae565b5b620004bf82620005dd565b9050602081019050919050565b600082825260208201905092915050565b60005b83811015620004fd578082015181840152602081019050620004e0565b838111156200050d576000848401525b50505050565b600060028204905060018216806200052c57607f821691505b602082108114156200054357620005426200057f565b5b50919050565b6200055482620005dd565b810181811067ffffffffffffffff82111715620005765762000575620005ae565b5b80604052505050565b7f4e487b7100000000000000000000000000000000000000000000000000000000600052602260045260246000fd5b7f4e487b7100000000000000000000000000000000000000000000000000000000600052604160045260246000fd5b6000601f19601f8301169050919050565b7f4f776e61626c653a2063616c6c6572206973206e6f7420746865206f776e6572600082015250565b61419c80620006276000396000f3fe608060405234801561001057600080fd5b50600436106101735760003560e01c806370a08231116100de578063a22cb46511610097578063d004b03611610071578063d004b03614610446578063d547cfb714610476578063e985e9c514610494578063f2fde38b146104c457610173565b8063a22cb465146103de578063b88d4fde146103fa578063c87b56dd1461041657610173565b806370a0823114610330578063715018a614610360578063729ad39e1461036a5780638da5cb5b1461038657806392642744146103a457806395d89b41146103c057610173565b80632890e0d7116101305780632890e0d71461024c5780632f745c591461026857806342842e0e146102985780634f6ccce7146102b457806355f804b3146102e45780636352211e1461030057610173565b806301ffc9a71461017857806306fdde03146101a8578063081812fc146101c6578063095ea7b3146101f657806318160ddd1461021257806323b872dd14610230575b600080fd5b610192600480360381019061018d9190612dd1565b6104e0565b60405161019f91906133bf565b60405180910390f35b6101b061055a565b6040516101bd91906133da565b60405180910390f35b6101e060048036038101906101db9190612e64565b6105ec565b6040516101ed9190613336565b60405180910390f35b610210600480360381019061020b9190612d54565b610671565b005b61021a610789565b60405161022791906136bc565b60405180910390f35b61024a60048036038101906102459190612c4e565b610796565b005b61026660048036038101906102619190612e64565b6107f6565b005b610282600480360381019061027d9190612d54565b61087f565b60405161028f91906136bc565b60405180910390f35b6102b260048036038101906102ad9190612c4e565b610924565b005b6102ce60048036038101906102c99190612e64565b610944565b6040516102db91906136bc565b60405180910390f35b6102fe60048036038101906102f99190612e23565b6109db565b005b61031a60048036038101906103159190612e64565b610a71565b6040516103279190613336565b60405180910390f35b61034a60048036038101906103459190612be9565b610b23565b60405161035791906136bc565b60405180910390f35b610368610bdb565b005b610384600480360381019061037f9190612d90565b610c63565b005b61038e610e52565b60405161039b9190613336565b60405180910390f35b6103be60048036038101906103b99190612e64565b610e7c565b005b6103c861104f565b6040516103d591906133da565b60405180910390f35b6103f860048036038101906103f39190612d18565b6110e1565b005b610414600480360381019061040f9190612c9d565b6110f7565b005b610430600480360381019061042b9190612e64565b611159565b60405161043d91906133da565b60405180910390f35b610460600480360381019061045b9190612be9565b611283565b60405161046d919061339d565b60405180910390f35b61047e61137f565b60405161048b91906133da565b60405180910390f35b6104ae60048036038101906104a99190612c12565b61140d565b6040516104bb91906133bf565b60405180910390f35b6104de60048036038101906104d99190612be9565b6114a1565b005b60007f780e9d63000000000000000000000000000000000000000000000000000000007bffffffffffffffffffffffffffffffffffffffffffffffffffffffff1916827bffffffffffffffffffffffffffffffffffffffffffffffffffffffff19161480610553575061055282611599565b5b9050919050565b60606000805461056990613977565b80601f016020809104026020016040519081016040528092919081815260200182805461059590613977565b80156105e25780601f106105b7576101008083540402835291602001916105e2565b820191906000526020600020905b8154815290600101906020018083116105c557829003601f168201915b5050505050905090565b60006105f78261167b565b610636576040517f08c379a000000000000000000000000000000000000000000000000000000000815260040161062d906135dc565b60405180910390fd5b6004600083815260200190815260200160002060009054906101000a900473ffffffffffffffffffffffffffffffffffffffff169050919050565b600061067c82610a71565b90508073ffffffffffffffffffffffffffffffffffffffff168373ffffffffffffffffffffffffffffffffffffffff1614156106ed576040517f08c379a00000000000000000000000000000000000000000000000000000000081526004016106e49061361c565b60405180910390fd5b8073ffffffffffffffffffffffffffffffffffffffff1661070c6116e7565b73ffffffffffffffffffffffffffffffffffffffff16148061073b575061073a816107356116e7565b61140d565b5b61077a576040517f08c379a00000000000000000000000000000000000000000000000000000000081526004016107719061353c565b60405180910390fd5b61078483836116ef565b505050565b6000600880549050905090565b6107a76107a16116e7565b826117a8565b6107e6576040517f08c379a00000000000000000000000000000000000000000000000000000000081526004016107dd9061365c565b60405180910390fd5b6107f1838383611886565b505050565b6107fe6116e7565b73ffffffffffffffffffffffffffffffffffffffff1661081d82610a71565b73ffffffffffffffffffffffffffffffffffffffff1614610873576040517f08c379a000000000000000000000000000000000000000000000000000000000815260040161086a9061369c565b60405180910390fd5b61087c81611aed565b50565b600061088a83610b23565b82106108cb576040517f08c379a00000000000000000000000000000000000000000000000000000000081526004016108c29061341c565b60405180910390fd5b600660008473ffffffffffffffffffffffffffffffffffffffff1673ffffffffffffffffffffffffffffffffffffffff168152602001908152602001600020600083815260200190815260200160002054905092915050565b61093f838383604051806020016040528060008152506110f7565b505050565b600061094e610789565b821061098f576040517f08c379a00000000000000000000000000000000000000000000000000000000081526004016109869061367c565b60405180910390fd5b600882815481106109c9577f4e487b7100000000000000000000000000000000000000000000000000000000600052603260045260246000fd5b90600052602060002001549050919050565b6109e36116e7565b73ffffffffffffffffffffffffffffffffffffffff16610a01610e52565b73ffffffffffffffffffffffffffffffffffffffff1614610a57576040517f08c379a0000000000000000000000000000000000000000000000000000000008152600401610a4e906135fc565b60405180910390fd5b80600d9080519060200190610a6d929190612977565b5050565b6000806002600084815260200190815260200160002060009054906101000a900473ffffffffffffffffffffffffffffffffffffffff169050600073ffffffffffffffffffffffffffffffffffffffff168173ffffffffffffffffffffffffffffffffffffffff161415610b1a576040517f08c379a0000000000000000000000000000000000000000000000000000000008152600401610b119061357c565b60405180910390fd5b80915050919050565b60008073ffffffffffffffffffffffffffffffffffffffff168273ffffffffffffffffffffffffffffffffffffffff161415610b94576040517f08c379a0000000000000000000000000000000000000000000000000000000008152600401610b8b9061355c565b60405180910390fd5b600360008373ffffffffffffffffffffffffffffffffffffffff1673ffffffffffffffffffffffffffffffffffffffff168152602001908152602001600020549050919050565b610be36116e7565b73ffffffffffffffffffffffffffffffffffffffff16610c01610e52565b73ffffffffffffffffffffffffffffffffffffffff1614610c57576040517f08c379a0000000000000000000000000000000000000000000000000000000008152600401610c4e906135fc565b60405180910390fd5b610c616000611c0a565b565b610c6b6116e7565b73ffffffffffffffffffffffffffffffffffffffff16610c89610e52565b73ffffffffffffffffffffffffffffffffffffffff1614610cdf576040517f08c379a0000000000000000000000000000000000000000000000000000000008152600401610cd6906135fc565b60405180910390fd5b600c54610cec600b611cd0565b10610d2c576040517f08c379a0000000000000000000000000000000000000000000000000000000008152600401610d23906133fc565b60405180910390fd5b60005b8151811015610e4e576000610d44600b611cd0565b90506103e8811015610e42576000610d5c600b611cd0565b9050610da8848481518110610d9a577f4e487b7100000000000000000000000000000000000000000000000000000000600052603260045260246000fd5b602002602001015182611cde565b610db2600b611eb8565b838381518110610deb577f4e487b7100000000000000000000000000000000000000000000000000000000600052603260045260246000fd5b602002602001015173ffffffffffffffffffffffffffffffffffffffff167f8c32c568416fcf97be35ce5b27844cfddcd63a67a1a602c3595ba5dac38f303a82604051610e3891906136bc565b60405180910390a2505b81600101915050610d2f565b5050565b6000600a60009054906101000a900473ffffffffffffffffffffffffffffffffffffffff16905090565b600081118015610e8d5750600e5481105b610ecc576040517f08c379a0000000000000000000000000000000000000000000000000000000008152600401610ec39061363c565b60405180910390fd5b600e5481600f60003373ffffffffffffffffffffffffffffffffffffffff1673ffffffffffffffffffffffffffffffffffffffff16815260200190815260200160002054610f1a9190613806565b1115610f5b576040517f08c379a0000000000000000000000000000000000000000000000000000000008152600401610f52906135bc565b60405180910390fd5b600c54610f68600b611cd0565b10610fa8576040517f08c379a0000000000000000000000000000000000000000000000000000000008152600401610f9f906133fc565b60405180910390fd5b60005b81811015610ff5576000610fbf600b611cd0565b90506103e8811015610fe757610fdc610fd66116e7565b82611ece565b610fe6600b611eb8565b5b818060010192505050610fab565b5080600f60003373ffffffffffffffffffffffffffffffffffffffff1673ffffffffffffffffffffffffffffffffffffffff16815260200190815260200160002060008282546110459190613806565b9250508190555050565b60606001805461105e90613977565b80601f016020809104026020016040519081016040528092919081815260200182805461108a90613977565b80156110d75780601f106110ac576101008083540402835291602001916110d7565b820191906000526020600020905b8154815290600101906020018083116110ba57829003601f168201915b5050505050905090565b6110f36110ec6116e7565b8383611eec565b5050565b6111086111026116e7565b836117a8565b611147576040517f08c379a000000000000000000000000000000000000000000000000000000000815260040161113e9061365c565b60405180910390fd5b61115384848484612059565b50505050565b60606111648261167b565b6111a3576040517f08c379a000000000000000000000000000000000000000000000000000000000815260040161119a9061347c565b60405180910390fd5b6000600d80546111b290613977565b80601f01602080910402602001604051908101604052809291908181526020018280546111de90613977565b801561122b5780601f106112005761010080835404028352916020019161122b565b820191906000526020600020905b81548152906001019060200180831161120e57829003601f168201915b505050505090506000815111611250576040518060200160405280600081525061127b565b8061125a846120b5565b60405160200161126b929190613307565b6040516020818303038152906040525b915050919050565b6060600061129083610b23565b67ffffffffffffffff8111156112cf577f4e487b7100000000000000000000000000000000000000000000000000000000600052604160045260246000fd5b6040519080825280602002602001820160405280156112fd5781602001602082028036833780820191505090505b50905060005b61130c84610b23565b8110156113755761131d848261087f565b828281518110611356577f4e487b7100000000000000000000000000000000000000000000000000000000600052603260045260246000fd5b602002602001018181525050808061136d906139da565b915050611303565b8192505050919050565b600d805461138c90613977565b80601f01602080910402602001604051908101604052809291908181526020018280546113b890613977565b80156114055780601f106113da57610100808354040283529160200191611405565b820191906000526020600020905b8154815290600101906020018083116113e857829003601f168201915b505050505081565b6000600560008473ffffffffffffffffffffffffffffffffffffffff1673ffffffffffffffffffffffffffffffffffffffff16815260200190815260200160002060008373ffffffffffffffffffffffffffffffffffffffff1673ffffffffffffffffffffffffffffffffffffffff16815260200190815260200160002060009054906101000a900460ff16905092915050565b6114a96116e7565b73ffffffffffffffffffffffffffffffffffffffff166114c7610e52565b73ffffffffffffffffffffffffffffffffffffffff161461151d576040517f08c379a0000000000000000000000000000000000000000000000000000000008152600401611514906135fc565b60405180910390fd5b600073ffffffffffffffffffffffffffffffffffffffff168173ffffffffffffffffffffffffffffffffffffffff16141561158d576040517f08c379a00000000000000000000000000000000000000000000000000000000081526004016115849061345c565b60405180910390fd5b61159681611c0a565b50565b60007f80ac58cd000000000000000000000000000000000000000000000000000000007bffffffffffffffffffffffffffffffffffffffffffffffffffffffff1916827bffffffffffffffffffffffffffffffffffffffffffffffffffffffff1916148061166457507f5b5e139f000000000000000000000000000000000000000000000000000000007bffffffffffffffffffffffffffffffffffffffffffffffffffffffff1916827bffffffffffffffffffffffffffffffffffffffffffffffffffffffff1916145b80611674575061167382612262565b5b9050919050565b60008073ffffffffffffffffffffffffffffffffffffffff166002600084815260200190815260200160002060009054906101000a900473ffffffffffffffffffffffffffffffffffffffff1673ffffffffffffffffffffffffffffffffffffffff1614159050919050565b600033905090565b816004600083815260200190815260200160002060006101000a81548173ffffffffffffffffffffffffffffffffffffffff021916908373ffffffffffffffffffffffffffffffffffffffff160217905550808273ffffffffffffffffffffffffffffffffffffffff1661176283610a71565b73ffffffffffffffffffffffffffffffffffffffff167f8c5be1e5ebec7d5bd14f71427d1e84f3dd0314c0f7b2291e5b200ac8c7c3b92560405160405180910390a45050565b60006117b38261167b565b6117f2576040517f08c379a00000000000000000000000000000000000000000000000000000000081526004016117e99061351c565b60405180910390fd5b60006117fd83610a71565b90508073ffffffffffffffffffffffffffffffffffffffff168473ffffffffffffffffffffffffffffffffffffffff16148061183f575061183e818561140d565b5b8061187d57508373ffffffffffffffffffffffffffffffffffffffff16611865846105ec565b73ffffffffffffffffffffffffffffffffffffffff16145b91505092915050565b8273ffffffffffffffffffffffffffffffffffffffff166118a682610a71565b73ffffffffffffffffffffffffffffffffffffffff16146118fc576040517f08c379a00000000000000000000000000000000000000000000000000000000081526004016118f39061349c565b60405180910390fd5b600073ffffffffffffffffffffffffffffffffffffffff168273ffffffffffffffffffffffffffffffffffffffff16141561196c576040517f08c379a0000000000000000000000000000000000000000000000000000000008152600401611963906134dc565b60405180910390fd5b6119778383836122cc565b6119826000826116ef565b6001600360008573ffffffffffffffffffffffffffffffffffffffff1673ffffffffffffffffffffffffffffffffffffffff16815260200190815260200160002060008282546119d2919061388d565b925050819055506001600360008473ffffffffffffffffffffffffffffffffffffffff1673ffffffffffffffffffffffffffffffffffffffff1681526020019081526020016000206000828254611a299190613806565b92505081905550816002600083815260200190815260200160002060006101000a81548173ffffffffffffffffffffffffffffffffffffffff021916908373ffffffffffffffffffffffffffffffffffffffff160217905550808273ffffffffffffffffffffffffffffffffffffffff168473ffffffffffffffffffffffffffffffffffffffff167fddf252ad1be2c89b69c2b068fc378daa952ba7f163c4a11628f55a4df523b3ef60405160405180910390a4611ae88383836123e0565b505050565b6000611af882610a71565b9050611b06816000846122cc565b611b116000836116ef565b6001600360008373ffffffffffffffffffffffffffffffffffffffff1673ffffffffffffffffffffffffffffffffffffffff1681526020019081526020016000206000828254611b61919061388d565b925050819055506002600083815260200190815260200160002060006101000a81549073ffffffffffffffffffffffffffffffffffffffff021916905581600073ffffffffffffffffffffffffffffffffffffffff168273ffffffffffffffffffffffffffffffffffffffff167fddf252ad1be2c89b69c2b068fc378daa952ba7f163c4a11628f55a4df523b3ef60405160405180910390a4611c06816000846123e0565b5050565b6000600a60009054906101000a900473ffffffffffffffffffffffffffffffffffffffff16905081600a60006101000a81548173ffffffffffffffffffffffffffffffffffffffff021916908373ffffffffffffffffffffffffffffffffffffffff1602179055508173ffffffffffffffffffffffffffffffffffffffff168173ffffffffffffffffffffffffffffffffffffffff167f8be0079c531659141344cd1fd0a4f28419497f9722a3daafe3b4186f6b6457e060405160405180910390a35050565b600081600001549050919050565b600073ffffffffffffffffffffffffffffffffffffffff168273ffffffffffffffffffffffffffffffffffffffff161415611d4e576040517f08c379a0000000000000000000000000000000000000000000000000000000008152600401611d459061359c565b60405180910390fd5b611d578161167b565b15611d97576040517f08c379a0000000000000000000000000000000000000000000000000000000008152600401611d8e906134bc565b60405180910390fd5b611da3600083836122cc565b6001600360008473ffffffffffffffffffffffffffffffffffffffff1673ffffffffffffffffffffffffffffffffffffffff1681526020019081526020016000206000828254611df39190613806565b92505081905550816002600083815260200190815260200160002060006101000a81548173ffffffffffffffffffffffffffffffffffffffff021916908373ffffffffffffffffffffffffffffffffffffffff160217905550808273ffffffffffffffffffffffffffffffffffffffff16600073ffffffffffffffffffffffffffffffffffffffff167fddf252ad1be2c89b69c2b068fc378daa952ba7f163c4a11628f55a4df523b3ef60405160405180910390a4611eb4600083836123e0565b5050565b6001816000016000828254019250508190555050565b611ee88282604051806020016040528060008152506123e5565b5050565b8173ffffffffffffffffffffffffffffffffffffffff168373ffffffffffffffffffffffffffffffffffffffff161415611f5b576040517f08c379a0000000000000000000000000000000000000000000000000000000008152600401611f52906134fc565b60405180910390fd5b80600560008573ffffffffffffffffffffffffffffffffffffffff1673ffffffffffffffffffffffffffffffffffffffff16815260200190815260200160002060008473ffffffffffffffffffffffffffffffffffffffff1673ffffffffffffffffffffffffffffffffffffffff16815260200190815260200160002060006101000a81548160ff0219169083151502179055508173ffffffffffffffffffffffffffffffffffffffff168373ffffffffffffffffffffffffffffffffffffffff167f17307eab39ab6107e8899845ad3d59bd9653f200f220920489ca2b5937696c318360405161204c91906133bf565b60405180910390a3505050565b612064848484611886565b61207084848484612440565b6120af576040517f08c379a00000000000000000000000000000000000000000000000000000000081526004016120a69061343c565b60405180910390fd5b50505050565b606060008214156120fd576040518060400160405280600181526020017f3000000000000000000000000000000000000000000000000000000000000000815250905061225d565b600082905060005b6000821461212f578080612118906139da565b915050600a82612128919061385c565b9150612105565b60008167ffffffffffffffff811115612171577f4e487b7100000000000000000000000000000000000000000000000000000000600052604160045260246000fd5b6040519080825280601f01601f1916602001820160405280156121a35781602001600182028036833780820191505090505b5090505b60008514612256576001826121bc919061388d565b9150600a856121cb9190613a23565b60306121d79190613806565b60f81b818381518110612213577f4e487b7100000000000000000000000000000000000000000000000000000000600052603260045260246000fd5b60200101907effffffffffffffffffffffffffffffffffffffffffffffffffffffffffffff1916908160001a905350600a8561224f919061385c565b94506121a7565b8093505050505b919050565b60007f01ffc9a7000000000000000000000000000000000000000000000000000000007bffffffffffffffffffffffffffffffffffffffffffffffffffffffff1916827bffffffffffffffffffffffffffffffffffffffffffffffffffffffff1916149050919050565b6122d78383836125d7565b600073ffffffffffffffffffffffffffffffffffffffff168373ffffffffffffffffffffffffffffffffffffffff16141561231a57612315816125dc565b612359565b8173ffffffffffffffffffffffffffffffffffffffff168373ffffffffffffffffffffffffffffffffffffffff1614612358576123578382612625565b5b5b600073ffffffffffffffffffffffffffffffffffffffff168273ffffffffffffffffffffffffffffffffffffffff16141561239c5761239781612792565b6123db565b8273ffffffffffffffffffffffffffffffffffffffff168273ffffffffffffffffffffffffffffffffffffffff16146123da576123d982826128d5565b5b5b505050565b505050565b6123ef8383611cde565b6123fc6000848484612440565b61243b576040517f08c379a00000000000000000000000000000000000000000000000000000000081526004016124329061343c565b60405180910390fd5b505050565b60006124618473ffffffffffffffffffffffffffffffffffffffff16612954565b156125ca578373ffffffffffffffffffffffffffffffffffffffff1663150b7a0261248a6116e7565b8786866040518563ffffffff1660e01b81526004016124ac9493929190613351565b602060405180830381600087803b1580156124c657600080fd5b505af19250505080156124f757506040513d601f19601f820116820180604052508101906124f49190612dfa565b60015b61257a573d8060008114612527576040519150601f19603f3d011682016040523d82523d6000602084013e61252c565b606091505b50600081511415612572576040517f08c379a00000000000000000000000000000000000000000000000000000000081526004016125699061343c565b60405180910390fd5b805181602001fd5b63150b7a0260e01b7bffffffffffffffffffffffffffffffffffffffffffffffffffffffff1916817bffffffffffffffffffffffffffffffffffffffffffffffffffffffff1916149150506125cf565b600190505b949350505050565b505050565b6008805490506009600083815260200190815260200160002081905550600881908060018154018082558091505060019003906000526020600020016000909190919091505550565b6000600161263284610b23565b61263c919061388d565b9050600060076000848152602001908152602001600020549050818114612721576000600660008673ffffffffffffffffffffffffffffffffffffffff1673ffffffffffffffffffffffffffffffffffffffff168152602001908152602001600020600084815260200190815260200160002054905080600660008773ffffffffffffffffffffffffffffffffffffffff1673ffffffffffffffffffffffffffffffffffffffff168152602001908152602001600020600084815260200190815260200160002081905550816007600083815260200190815260200160002081905550505b6007600084815260200190815260200160002060009055600660008573ffffffffffffffffffffffffffffffffffffffff1673ffffffffffffffffffffffffffffffffffffffff16815260200190815260200160002060008381526020019081526020016000206000905550505050565b600060016008805490506127a6919061388d565b90506000600960008481526020019081526020016000205490506000600883815481106127fc577f4e487b7100000000000000000000000000000000000000000000000000000000600052603260045260246000fd5b906000526020600020015490508060088381548110612844577f4e487b7100000000000000000000000000000000000000000000000000000000600052603260045260246000fd5b9060005260206000200181905550816009600083815260200190815260200160002081905550600960008581526020019081526020016000206000905560088054806128b9577f4e487b7100000000000000000000000000000000000000000000000000000000600052603160045260246000fd5b6001900381819060005260206000200160009055905550505050565b60006128e083610b23565b905081600660008573ffffffffffffffffffffffffffffffffffffffff1673ffffffffffffffffffffffffffffffffffffffff168152602001908152602001600020600083815260200190815260200160002081905550806007600084815260200190815260200160002081905550505050565b6000808273ffffffffffffffffffffffffffffffffffffffff163b119050919050565b82805461298390613977565b90600052602060002090601f0160209004810192826129a557600085556129ec565b82601f106129be57805160ff19168380011785556129ec565b828001600101855582156129ec579182015b828111156129eb5782518255916020019190600101906129d0565b5b5090506129f991906129fd565b5090565b5b80821115612a165760008160009055506001016129fe565b5090565b6000612a2d612a28846136fc565b6136d7565b90508083825260208201905082856020860282011115612a4c57600080fd5b60005b85811015612a7c5781612a628882612b02565b845260208401935060208301925050600181019050612a4f565b5050509392505050565b6000612a99612a9484613728565b6136d7565b905082815260208101848484011115612ab157600080fd5b612abc848285613935565b509392505050565b6000612ad7612ad284613759565b6136d7565b905082815260208101848484011115612aef57600080fd5b612afa848285613935565b509392505050565b600081359050612b118161410a565b92915050565b600082601f830112612b2857600080fd5b8135612b38848260208601612a1a565b91505092915050565b600081359050612b5081614121565b92915050565b600081359050612b6581614138565b92915050565b600081519050612b7a81614138565b92915050565b600082601f830112612b9157600080fd5b8135612ba1848260208601612a86565b91505092915050565b600082601f830112612bbb57600080fd5b8135612bcb848260208601612ac4565b91505092915050565b600081359050612be38161414f565b92915050565b600060208284031215612bfb57600080fd5b6000612c0984828501612b02565b91505092915050565b60008060408385031215612c2557600080fd5b6000612c3385828601612b02565b9250506020612c4485828601612b02565b9150509250929050565b600080600060608486031215612c6357600080fd5b6000612c7186828701612b02565b9350506020612c8286828701612b02565b9250506040612c9386828701612bd4565b9150509250925092565b60008060008060808587031215612cb357600080fd5b6000612cc187828801612b02565b9450506020612cd287828801612b02565b9350506040612ce387828801612bd4565b925050606085013567ffffffffffffffff811115612d0057600080fd5b612d0c87828801612b80565b91505092959194509250565b60008060408385031215612d2b57600080fd5b6000612d3985828601612b02565b9250506020612d4a85828601612b41565b9150509250929050565b60008060408385031215612d6757600080fd5b6000612d7585828601612b02565b9250506020612d8685828601612bd4565b9150509250929050565b600060208284031215612da257600080fd5b600082013567ffffffffffffffff811115612dbc57600080fd5b612dc884828501612b17565b91505092915050565b600060208284031215612de357600080fd5b6000612df184828501612b56565b91505092915050565b600060208284031215612e0c57600080fd5b6000612e1a84828501612b6b565b91505092915050565b600060208284031215612e3557600080fd5b600082013567ffffffffffffffff811115612e4f57600080fd5b612e5b84828501612baa565b91505092915050565b600060208284031215612e7657600080fd5b6000612e8484828501612bd4565b91505092915050565b6000612e9983836132e9565b60208301905092915050565b612eae816138c1565b82525050565b6000612ebf8261379a565b612ec981856137c8565b9350612ed48361378a565b8060005b83811015612f05578151612eec8882612e8d565b9750612ef7836137bb565b925050600181019050612ed8565b5085935050505092915050565b612f1b816138d3565b82525050565b6000612f2c826137a5565b612f3681856137d9565b9350612f46818560208601613944565b612f4f81613b10565b840191505092915050565b6000612f65826137b0565b612f6f81856137ea565b9350612f7f818560208601613944565b612f8881613b10565b840191505092915050565b6000612f9e826137b0565b612fa881856137fb565b9350612fb8818560208601613944565b80840191505092915050565b6000612fd1600e836137ea565b9150612fdc82613b21565b602082019050919050565b6000612ff4602b836137ea565b9150612fff82613b4a565b604082019050919050565b60006130176032836137ea565b915061302282613b99565b604082019050919050565b600061303a6026836137ea565b915061304582613be8565b604082019050919050565b600061305d6017836137ea565b915061306882613c37565b602082019050919050565b60006130806025836137ea565b915061308b82613c60565b604082019050919050565b60006130a3601c836137ea565b91506130ae82613caf565b602082019050919050565b60006130c66024836137ea565b91506130d182613cd8565b604082019050919050565b60006130e96019836137ea565b91506130f482613d27565b602082019050919050565b600061310c602c836137ea565b915061311782613d50565b604082019050919050565b600061312f6038836137ea565b915061313a82613d9f565b604082019050919050565b6000613152602a836137ea565b915061315d82613dee565b604082019050919050565b60006131756029836137ea565b915061318082613e3d565b604082019050919050565b60006131986020836137ea565b91506131a382613e8c565b602082019050919050565b60006131bb600d836137ea565b91506131c682613eb5565b602082019050919050565b60006131de602c836137ea565b91506131e982613ede565b604082019050919050565b60006132016005836137fb565b915061320c82613f2d565b600582019050919050565b60006132246020836137ea565b915061322f82613f56565b602082019050919050565b60006132476021836137ea565b915061325282613f7f565b604082019050919050565b600061326a6026836137ea565b915061327582613fce565b604082019050919050565b600061328d6031836137ea565b91506132988261401d565b604082019050919050565b60006132b0602c836137ea565b91506132bb8261406c565b604082019050919050565b60006132d36023836137ea565b91506132de826140bb565b604082019050919050565b6132f28161392b565b82525050565b6133018161392b565b82525050565b60006133138285612f93565b915061331f8284612f93565b915061332a826131f4565b91508190509392505050565b600060208201905061334b6000830184612ea5565b92915050565b60006080820190506133666000830187612ea5565b6133736020830186612ea5565b61338060408301856132f8565b81810360608301526133928184612f21565b905095945050505050565b600060208201905081810360008301526133b78184612eb4565b905092915050565b60006020820190506133d46000830184612f12565b92915050565b600060208201905081810360008301526133f48184612f5a565b905092915050565b6000602082019050818103600083015261341581612fc4565b9050919050565b6000602082019050818103600083015261343581612fe7565b9050919050565b600060208201905081810360008301526134558161300a565b9050919050565b600060208201905081810360008301526134758161302d565b9050919050565b6000602082019050818103600083015261349581613050565b9050919050565b600060208201905081810360008301526134b581613073565b9050919050565b600060208201905081810360008301526134d581613096565b9050919050565b600060208201905081810360008301526134f5816130b9565b9050919050565b60006020820190508181036000830152613515816130dc565b9050919050565b60006020820190508181036000830152613535816130ff565b9050919050565b6000602082019050818103600083015261355581613122565b9050919050565b6000602082019050818103600083015261357581613145565b9050919050565b6000602082019050818103600083015261359581613168565b9050919050565b600060208201905081810360008301526135b58161318b565b9050919050565b600060208201905081810360008301526135d5816131ae565b9050919050565b600060208201905081810360008301526135f5816131d1565b9050919050565b6000602082019050818103600083015261361581613217565b9050919050565b600060208201905081810360008301526136358161323a565b9050919050565b600060208201905081810360008301526136558161325d565b9050919050565b6000602082019050818103600083015261367581613280565b9050919050565b60006020820190508181036000830152613695816132a3565b9050919050565b600060208201905081810360008301526136b5816132c6565b9050919050565b60006020820190506136d160008301846132f8565b92915050565b60006136e16136f2565b90506136ed82826139a9565b919050565b6000604051905090565b600067ffffffffffffffff82111561371757613716613ae1565b5b602082029050602081019050919050565b600067ffffffffffffffff82111561374357613742613ae1565b5b61374c82613b10565b9050602081019050919050565b600067ffffffffffffffff82111561377457613773613ae1565b5b61377d82613b10565b9050602081019050919050565b6000819050602082019050919050565b600081519050919050565b600081519050919050565b600081519050919050565b6000602082019050919050565b600082825260208201905092915050565b600082825260208201905092915050565b600082825260208201905092915050565b600081905092915050565b60006138118261392b565b915061381c8361392b565b9250827fffffffffffffffffffffffffffffffffffffffffffffffffffffffffffffffff0382111561385157613850613a54565b5b828201905092915050565b60006138678261392b565b91506138728361392b565b92508261388257613881613a83565b5b828204905092915050565b60006138988261392b565b91506138a38361392b565b9250828210156138b6576138b5613a54565b5b828203905092915050565b60006138cc8261390b565b9050919050565b60008115159050919050565b60007fffffffff0000000000000000000000000000000000000000000000000000000082169050919050565b600073ffffffffffffffffffffffffffffffffffffffff82169050919050565b6000819050919050565b82818337600083830152505050565b60005b83811015613962578082015181840152602081019050613947565b83811115613971576000848401525b50505050565b6000600282049050600182168061398f57607f821691505b602082108114156139a3576139a2613ab2565b5b50919050565b6139b282613b10565b810181811067ffffffffffffffff821117156139d1576139d0613ae1565b5b80604052505050565b60006139e58261392b565b91507fffffffffffffffffffffffffffffffffffffffffffffffffffffffffffffffff821415613a1857613a17613a54565b5b600182019050919050565b6000613a2e8261392b565b9150613a398361392b565b925082613a4957613a48613a83565b5b828206905092915050565b7f4e487b7100000000000000000000000000000000000000000000000000000000600052601160045260246000fd5b7f4e487b7100000000000000000000000000000000000000000000000000000000600052601260045260246000fd5b7f4e487b7100000000000000000000000000000000000000000000000000000000600052602260045260246000fd5b7f4e487b7100000000000000000000000000000000000000000000000000000000600052604160045260246000fd5b6000601f19601f8301169050919050565b7f537570706c792065786365646564000000000000000000000000000000000000600082015250565b7f455243373231456e756d657261626c653a206f776e657220696e646578206f7560008201527f74206f6620626f756e6473000000000000000000000000000000000000000000602082015250565b7f4552433732313a207472616e7366657220746f206e6f6e20455243373231526560008201527f63656976657220696d706c656d656e7465720000000000000000000000000000602082015250565b7f4f776e61626c653a206e6577206f776e657220697320746865207a65726f206160008201527f6464726573730000000000000000000000000000000000000000000000000000602082015250565b7f54686973204e465420646f65736e27742065786973742e000000000000000000600082015250565b7f4552433732313a207472616e736665722066726f6d20696e636f72726563742060008201527f6f776e6572000000000000000000000000000000000000000000000000000000602082015250565b7f4552433732313a20746f6b656e20616c7265616479206d696e74656400000000600082015250565b7f4552433732313a207472616e7366657220746f20746865207a65726f2061646460008201527f7265737300000000000000000000000000000000000000000000000000000000602082015250565b7f4552433732313a20617070726f766520746f2063616c6c657200000000000000600082015250565b7f4552433732313a206f70657261746f7220717565727920666f72206e6f6e657860008201527f697374656e7420746f6b656e0000000000000000000000000000000000000000602082015250565b7f4552433732313a20617070726f76652063616c6c6572206973206e6f74206f7760008201527f6e6572206e6f7220617070726f76656420666f7220616c6c0000000000000000602082015250565b7f4552433732313a2062616c616e636520717565727920666f7220746865207a6560008201527f726f206164647265737300000000000000000000000000000000000000000000602082015250565b7f4552433732313a206f776e657220717565727920666f72206e6f6e657869737460008201527f656e7420746f6b656e0000000000000000000000000000000000000000000000602082015250565b7f4552433732313a206d696e7420746f20746865207a65726f2061646472657373600082015250565b7f45786365656473206c696d697400000000000000000000000000000000000000600082015250565b7f4552433732313a20617070726f76656420717565727920666f72206e6f6e657860008201527f697374656e7420746f6b656e0000000000000000000000000000000000000000602082015250565b7f2e6a736f6e000000000000000000000000000000000000000000000000000000600082015250565b7f4f776e61626c653a2063616c6c6572206973206e6f7420746865206f776e6572600082015250565b7f4552433732313a20617070726f76616c20746f2063757272656e74206f776e6560008201527f7200000000000000000000000000000000000000000000000000000000000000602082015250565b7f546f6b656e73206e756d6265722073686f756c6420626520677265617465722060008201527f7468616e20300000000000000000000000000000000000000000000000000000602082015250565b7f4552433732313a207472616e736665722063616c6c6572206973206e6f74206f60008201527f776e6572206e6f7220617070726f766564000000000000000000000000000000602082015250565b7f455243373231456e756d657261626c653a20676c6f62616c20696e646578206f60008201527f7574206f6620626f756e64730000000000000000000000000000000000000000602082015250565b7f596f7520617265206e6f7420746865206f776e6572206f66207468697320746f60008201527f6b656e0000000000000000000000000000000000000000000000000000000000602082015250565b614113816138c1565b811461411e57600080fd5b50565b61412a816138d3565b811461413557600080fd5b50565b614141816138df565b811461414c57600080fd5b50565b6141588161392b565b811461416357600080fd5b5056fea2646970667358221220e119ad1f68800d69856be61e7ee5a044bf2fe604d3e74ddd49ff38326459969c64736f6c63430008020033",
  "linkReferences": {},
  "deployedLinkReferences": {}
}